{
  "_format": "hh-sol-artifact-1",
  "contractName": "Origin",
  "sourceName": "contracts/Origin.sol",
  "abi": [
    {
      "inputs": [],
      "stateMutability": "nonpayable",
      "type": "constructor"
    },
    {
      "anonymous": false,
      "inputs": [
        {
          "indexed": true,
          "internalType": "address",
          "name": "owner",
          "type": "address"
        },
        {
          "indexed": true,
          "internalType": "address",
          "name": "approved",
          "type": "address"
        },
        {
          "indexed": true,
          "internalType": "uint256",
          "name": "tokenId",
          "type": "uint256"
        }
      ],
      "name": "Approval",
      "type": "event"
    },
    {
      "anonymous": false,
      "inputs": [
        {
          "indexed": true,
          "internalType": "address",
          "name": "owner",
          "type": "address"
        },
        {
          "indexed": true,
          "internalType": "address",
          "name": "operator",
          "type": "address"
        },
        {
          "indexed": false,
          "internalType": "bool",
          "name": "approved",
          "type": "bool"
        }
      ],
      "name": "ApprovalForAll",
      "type": "event"
    },
    {
      "anonymous": false,
      "inputs": [
        {
          "indexed": true,
          "internalType": "address",
          "name": "from",
          "type": "address"
        },
        {
          "indexed": true,
          "internalType": "address",
          "name": "to",
          "type": "address"
        },
        {
          "indexed": true,
          "internalType": "uint256",
          "name": "tokenId",
          "type": "uint256"
        }
      ],
      "name": "Transfer",
      "type": "event"
    },
    {
      "inputs": [
        {
          "internalType": "address",
          "name": "to",
          "type": "address"
        },
        {
          "internalType": "uint256",
          "name": "tokenId",
          "type": "uint256"
        }
      ],
      "name": "approve",
      "outputs": [],
      "stateMutability": "nonpayable",
      "type": "function"
    },
    {
      "inputs": [
        {
          "internalType": "address",
          "name": "owner",
          "type": "address"
        }
      ],
      "name": "balanceOf",
      "outputs": [
        {
          "internalType": "uint256",
          "name": "",
          "type": "uint256"
        }
      ],
      "stateMutability": "view",
      "type": "function"
    },
    {
      "inputs": [
        {
          "internalType": "uint256",
          "name": "tokenId",
          "type": "uint256"
        }
      ],
      "name": "getApproved",
      "outputs": [
        {
          "internalType": "address",
          "name": "",
          "type": "address"
        }
      ],
      "stateMutability": "view",
      "type": "function"
    },
    {
      "inputs": [
        {
          "internalType": "uint256",
          "name": "from",
          "type": "uint256"
        },
        {
          "internalType": "uint256",
          "name": "size",
          "type": "uint256"
        }
      ],
      "name": "getOrigins",
      "outputs": [
        {
          "internalType": "string[]",
          "name": "",
          "type": "string[]"
        }
      ],
      "stateMutability": "view",
      "type": "function"
    },
    {
      "inputs": [
        {
          "internalType": "address",
          "name": "owner",
          "type": "address"
        },
        {
          "internalType": "address",
          "name": "operator",
          "type": "address"
        }
      ],
      "name": "isApprovedForAll",
      "outputs": [
        {
          "internalType": "bool",
          "name": "",
          "type": "bool"
        }
      ],
      "stateMutability": "view",
      "type": "function"
    },
    {
      "inputs": [
        {
          "internalType": "string",
          "name": "tokenURI",
          "type": "string"
        }
      ],
      "name": "mintOrigin",
      "outputs": [
        {
          "internalType": "uint256",
          "name": "",
          "type": "uint256"
        }
      ],
      "stateMutability": "nonpayable",
      "type": "function"
    },
    {
      "inputs": [],
      "name": "name",
      "outputs": [
        {
          "internalType": "string",
          "name": "",
          "type": "string"
        }
      ],
      "stateMutability": "view",
      "type": "function"
    },
    {
      "inputs": [
        {
          "internalType": "uint256",
          "name": "tokenId",
          "type": "uint256"
        }
      ],
      "name": "ownerOf",
      "outputs": [
        {
          "internalType": "address",
          "name": "",
          "type": "address"
        }
      ],
      "stateMutability": "view",
      "type": "function"
    },
    {
      "inputs": [
        {
          "internalType": "address",
          "name": "from",
          "type": "address"
        },
        {
          "internalType": "address",
          "name": "to",
          "type": "address"
        },
        {
          "internalType": "uint256",
          "name": "tokenId",
          "type": "uint256"
        }
      ],
      "name": "safeTransferFrom",
      "outputs": [],
      "stateMutability": "nonpayable",
      "type": "function"
    },
    {
      "inputs": [
        {
          "internalType": "address",
          "name": "from",
          "type": "address"
        },
        {
          "internalType": "address",
          "name": "to",
          "type": "address"
        },
        {
          "internalType": "uint256",
          "name": "tokenId",
          "type": "uint256"
        },
        {
          "internalType": "bytes",
          "name": "_data",
          "type": "bytes"
        }
      ],
      "name": "safeTransferFrom",
      "outputs": [],
      "stateMutability": "nonpayable",
      "type": "function"
    },
    {
      "inputs": [
        {
          "internalType": "address",
          "name": "operator",
          "type": "address"
        },
        {
          "internalType": "bool",
          "name": "approved",
          "type": "bool"
        }
      ],
      "name": "setApprovalForAll",
      "outputs": [],
      "stateMutability": "nonpayable",
      "type": "function"
    },
    {
      "inputs": [
        {
          "internalType": "bytes4",
          "name": "interfaceId",
          "type": "bytes4"
        }
      ],
      "name": "supportsInterface",
      "outputs": [
        {
          "internalType": "bool",
          "name": "",
          "type": "bool"
        }
      ],
      "stateMutability": "view",
      "type": "function"
    },
    {
      "inputs": [],
      "name": "symbol",
      "outputs": [
        {
          "internalType": "string",
          "name": "",
          "type": "string"
        }
      ],
      "stateMutability": "view",
      "type": "function"
    },
    {
      "inputs": [
        {
          "internalType": "uint256",
          "name": "index",
          "type": "uint256"
        }
      ],
      "name": "tokenByIndex",
      "outputs": [
        {
          "internalType": "uint256",
          "name": "",
          "type": "uint256"
        }
      ],
      "stateMutability": "view",
      "type": "function"
    },
    {
      "inputs": [
        {
          "internalType": "address",
          "name": "owner",
          "type": "address"
        },
        {
          "internalType": "uint256",
          "name": "index",
          "type": "uint256"
        }
      ],
      "name": "tokenOfOwnerByIndex",
      "outputs": [
        {
          "internalType": "uint256",
          "name": "",
          "type": "uint256"
        }
      ],
      "stateMutability": "view",
      "type": "function"
    },
    {
      "inputs": [
        {
          "internalType": "uint256",
          "name": "tokenId",
          "type": "uint256"
        }
      ],
      "name": "tokenURI",
      "outputs": [
        {
          "internalType": "string",
          "name": "",
          "type": "string"
        }
      ],
      "stateMutability": "view",
      "type": "function"
    },
    {
      "inputs": [],
      "name": "totalSupply",
      "outputs": [
        {
          "internalType": "uint256",
          "name": "",
          "type": "uint256"
        }
      ],
      "stateMutability": "view",
      "type": "function"
    },
    {
      "inputs": [
        {
          "internalType": "address",
          "name": "from",
          "type": "address"
        },
        {
          "internalType": "address",
          "name": "to",
          "type": "address"
        },
        {
          "internalType": "uint256",
          "name": "tokenId",
          "type": "uint256"
        }
      ],
      "name": "transferFrom",
      "outputs": [],
      "stateMutability": "nonpayable",
      "type": "function"
    }
  ],
  "bytecode": "0x60806040523480156200001157600080fd5b506040518060400160405280601581526020017f417574684d696e74204f726967696e20546f6b656e00000000000000000000008152506040518060400160405280600381526020017f414d4f0000000000000000000000000000000000000000000000000000000000815250816000908051906020019062000096929190620000b8565b508060019080519060200190620000af929190620000b8565b505050620001cd565b828054620000c69062000168565b90600052602060002090601f016020900481019282620000ea576000855562000136565b82601f106200010557805160ff191683800117855562000136565b8280016001018555821562000136579182015b828111156200013557825182559160200191906001019062000118565b5b50905062000145919062000149565b5090565b5b80821115620001645760008160009055506001016200014a565b5090565b600060028204905060018216806200018157607f821691505b602082108114156200019857620001976200019e565b5b50919050565b7f4e487b7100000000000000000000000000000000000000000000000000000000600052602260045260246000fd5b6137d880620001dd6000396000f3fe608060405234801561001057600080fd5b50600436106101165760003560e01c80634f6ccce7116100a257806395d89b411161007157806395d89b411461032b578063a22cb46514610349578063b88d4fde14610365578063c87b56dd14610381578063e985e9c5146103b157610116565b80634f6ccce71461026b5780636352211e1461029b57806370a08231146102cb57806392b1b2c6146102fb57610116565b806318160ddd116100e957806318160ddd146101b557806323b872dd146101d35780632f745c59146101ef5780633847d0361461021f57806342842e0e1461024f57610116565b806301ffc9a71461011b57806306fdde031461014b578063081812fc14610169578063095ea7b314610199575b600080fd5b6101356004803603810190610130919061264e565b6103e1565b604051610142919061303f565b60405180910390f35b6101536103f3565b604051610160919061305a565b60405180910390f35b610183600480360381019061017e91906126e1565b610485565b6040516101909190612fb6565b60405180910390f35b6101b360048036038101906101ae9190612612565b61050a565b005b6101bd610622565b6040516101ca9190613323565b60405180910390f35b6101ed60048036038101906101e8919061250c565b61062f565b005b61020960048036038101906102049190612612565b61068f565b6040516102169190613323565b60405180910390f35b6102396004803603810190610234919061270a565b610734565b604051610246919061301d565b60405180910390f35b6102696004803603810190610264919061250c565b610900565b005b610285600480360381019061028091906126e1565b610920565b6040516102929190613323565b60405180910390f35b6102b560048036038101906102b091906126e1565b6109b7565b6040516102c29190612fb6565b60405180910390f35b6102e560048036038101906102e091906124a7565b610a69565b6040516102f29190613323565b60405180910390f35b610315600480360381019061031091906126a0565b610b21565b6040516103229190613323565b60405180910390f35b610333610b58565b604051610340919061305a565b60405180910390f35b610363600480360381019061035e91906125d6565b610bea565b005b61037f600480360381019061037a919061255b565b610d6b565b005b61039b600480360381019061039691906126e1565b610dcd565b6040516103a8919061305a565b60405180910390f35b6103cb60048036038101906103c691906124d0565b610ddf565b6040516103d8919061303f565b60405180910390f35b60006103ec82610e73565b9050919050565b606060008054610402906135cd565b80601f016020809104026020016040519081016040528092919081815260200182805461042e906135cd565b801561047b5780601f106104505761010080835404028352916020019161047b565b820191906000526020600020905b81548152906001019060200180831161045e57829003601f168201915b5050505050905090565b600061049082610eed565b6104cf576040517f08c379a00000000000000000000000000000000000000000000000000000000081526004016104c690613263565b60405180910390fd5b6004600083815260200190815260200160002060009054906101000a900473ffffffffffffffffffffffffffffffffffffffff169050919050565b6000610515826109b7565b90508073ffffffffffffffffffffffffffffffffffffffff168373ffffffffffffffffffffffffffffffffffffffff161415610586576040517f08c379a000000000000000000000000000000000000000000000000000000000815260040161057d906132c3565b60405180910390fd5b8073ffffffffffffffffffffffffffffffffffffffff166105a5610f59565b73ffffffffffffffffffffffffffffffffffffffff1614806105d457506105d3816105ce610f59565b610ddf565b5b610613576040517f08c379a000000000000000000000000000000000000000000000000000000000815260040161060a906131a3565b60405180910390fd5b61061d8383610f61565b505050565b6000600880549050905090565b61064061063a610f59565b8261101a565b61067f576040517f08c379a0000000000000000000000000000000000000000000000000000000008152600401610676906132e3565b60405180910390fd5b61068a8383836110f8565b505050565b600061069a83610a69565b82106106db576040517f08c379a00000000000000000000000000000000000000000000000000000000081526004016106d2906130e3565b60405180910390fd5b600660008473ffffffffffffffffffffffffffffffffffffffff1673ffffffffffffffffffffffffffffffffffffffff168152602001908152602001600020600083815260200190815260200160002054905092915050565b606060008267ffffffffffffffff811115610778577f4e487b7100000000000000000000000000000000000000000000000000000000600052604160045260246000fd5b6040519080825280602002602001820160405280156107ab57816020015b60608152602001906001900390816107965790505b5090506107ed6040518060400160405280600481526020017f73697a650000000000000000000000000000000000000000000000000000000081525084611354565b60008490505b83856107ff919061345c565b8110156108f557600061081182610dcd565b90506108526040518060400160405280600181526020017f690000000000000000000000000000000000000000000000000000000000000081525083611354565b6108916040518060400160405280600881526020017f6f726967696e616c000000000000000000000000000000000000000000000000815250826113f0565b8083878461089f91906134e3565b815181106108d6577f4e487b7100000000000000000000000000000000000000000000000000000000600052603260045260246000fd5b60200260200101819052505080806108ed906135ff565b9150506107f3565b508091505092915050565b61091b83838360405180602001604052806000815250610d6b565b505050565b600061092a610622565b821061096b576040517f08c379a000000000000000000000000000000000000000000000000000000000815260040161096290613303565b60405180910390fd5b600882815481106109a5577f4e487b7100000000000000000000000000000000000000000000000000000000600052603260045260246000fd5b90600052602060002001549050919050565b6000806002600084815260200190815260200160002060009054906101000a900473ffffffffffffffffffffffffffffffffffffffff169050600073ffffffffffffffffffffffffffffffffffffffff168173ffffffffffffffffffffffffffffffffffffffff161415610a60576040517f08c379a0000000000000000000000000000000000000000000000000000000008152600401610a57906131e3565b60405180910390fd5b80915050919050565b60008073ffffffffffffffffffffffffffffffffffffffff168273ffffffffffffffffffffffffffffffffffffffff161415610ada576040517f08c379a0000000000000000000000000000000000000000000000000000000008152600401610ad1906131c3565b60405180910390fd5b600360008373ffffffffffffffffffffffffffffffffffffffff1673ffffffffffffffffffffffffffffffffffffffff168152602001908152602001600020549050919050565b6000610b2d600b61148c565b6000610b39600b6114a2565b9050610b4533826114b0565b610b4f818461167e565b80915050919050565b606060018054610b67906135cd565b80601f0160208091040260200160405190810160405280929190818152602001828054610b93906135cd565b8015610be05780601f10610bb557610100808354040283529160200191610be0565b820191906000526020600020905b815481529060010190602001808311610bc357829003601f168201915b5050505050905090565b610bf2610f59565b73ffffffffffffffffffffffffffffffffffffffff168273ffffffffffffffffffffffffffffffffffffffff161415610c60576040517f08c379a0000000000000000000000000000000000000000000000000000000008152600401610c5790613163565b60405180910390fd5b8060056000610c6d610f59565b73ffffffffffffffffffffffffffffffffffffffff1673ffffffffffffffffffffffffffffffffffffffff16815260200190815260200160002060008473ffffffffffffffffffffffffffffffffffffffff1673ffffffffffffffffffffffffffffffffffffffff16815260200190815260200160002060006101000a81548160ff0219169083151502179055508173ffffffffffffffffffffffffffffffffffffffff16610d1a610f59565b73ffffffffffffffffffffffffffffffffffffffff167f17307eab39ab6107e8899845ad3d59bd9653f200f220920489ca2b5937696c3183604051610d5f919061303f565b60405180910390a35050565b610d7c610d76610f59565b8361101a565b610dbb576040517f08c379a0000000000000000000000000000000000000000000000000000000008152600401610db2906132e3565b60405180910390fd5b610dc7848484846116f2565b50505050565b6060610dd88261174e565b9050919050565b6000600560008473ffffffffffffffffffffffffffffffffffffffff1673ffffffffffffffffffffffffffffffffffffffff16815260200190815260200160002060008373ffffffffffffffffffffffffffffffffffffffff1673ffffffffffffffffffffffffffffffffffffffff16815260200190815260200160002060009054906101000a900460ff16905092915050565b60007f780e9d63000000000000000000000000000000000000000000000000000000007bffffffffffffffffffffffffffffffffffffffffffffffffffffffff1916827bffffffffffffffffffffffffffffffffffffffffffffffffffffffff19161480610ee65750610ee5826118a0565b5b9050919050565b60008073ffffffffffffffffffffffffffffffffffffffff166002600084815260200190815260200160002060009054906101000a900473ffffffffffffffffffffffffffffffffffffffff1673ffffffffffffffffffffffffffffffffffffffff1614159050919050565b600033905090565b816004600083815260200190815260200160002060006101000a81548173ffffffffffffffffffffffffffffffffffffffff021916908373ffffffffffffffffffffffffffffffffffffffff160217905550808273ffffffffffffffffffffffffffffffffffffffff16610fd4836109b7565b73ffffffffffffffffffffffffffffffffffffffff167f8c5be1e5ebec7d5bd14f71427d1e84f3dd0314c0f7b2291e5b200ac8c7c3b92560405160405180910390a45050565b600061102582610eed565b611064576040517f08c379a000000000000000000000000000000000000000000000000000000000815260040161105b90613183565b60405180910390fd5b600061106f836109b7565b90508073ffffffffffffffffffffffffffffffffffffffff168473ffffffffffffffffffffffffffffffffffffffff1614806110de57508373ffffffffffffffffffffffffffffffffffffffff166110c684610485565b73ffffffffffffffffffffffffffffffffffffffff16145b806110ef57506110ee8185610ddf565b5b91505092915050565b8273ffffffffffffffffffffffffffffffffffffffff16611118826109b7565b73ffffffffffffffffffffffffffffffffffffffff161461116e576040517f08c379a000000000000000000000000000000000000000000000000000000000815260040161116590613283565b60405180910390fd5b600073ffffffffffffffffffffffffffffffffffffffff168273ffffffffffffffffffffffffffffffffffffffff1614156111de576040517f08c379a00000000000000000000000000000000000000000000000000000000081526004016111d590613143565b60405180910390fd5b6111e9838383611982565b6111f4600082610f61565b6001600360008573ffffffffffffffffffffffffffffffffffffffff1673ffffffffffffffffffffffffffffffffffffffff168152602001908152602001600020600082825461124491906134e3565b925050819055506001600360008473ffffffffffffffffffffffffffffffffffffffff1673ffffffffffffffffffffffffffffffffffffffff168152602001908152602001600020600082825461129b919061345c565b92505081905550816002600083815260200190815260200160002060006101000a81548173ffffffffffffffffffffffffffffffffffffffff021916908373ffffffffffffffffffffffffffffffffffffffff160217905550808273ffffffffffffffffffffffffffffffffffffffff168473ffffffffffffffffffffffffffffffffffffffff167fddf252ad1be2c89b69c2b068fc378daa952ba7f163c4a11628f55a4df523b3ef60405160405180910390a4505050565b6113ec828260405160240161136a9291906130b3565b6040516020818303038152906040527f9710a9d0000000000000000000000000000000000000000000000000000000007bffffffffffffffffffffffffffffffffffffffffffffffffffffffff19166020820180517bffffffffffffffffffffffffffffffffffffffffffffffffffffffff8381831617835250505050611992565b5050565b611488828260405160240161140692919061307c565b6040516020818303038152906040527f4b5c4277000000000000000000000000000000000000000000000000000000007bffffffffffffffffffffffffffffffffffffffffffffffffffffffff19166020820180517bffffffffffffffffffffffffffffffffffffffffffffffffffffffff8381831617835250505050611992565b5050565b6001816000016000828254019250508190555050565b600081600001549050919050565b600073ffffffffffffffffffffffffffffffffffffffff168273ffffffffffffffffffffffffffffffffffffffff161415611520576040517f08c379a000000000000000000000000000000000000000000000000000000000815260040161151790613223565b60405180910390fd5b61152981610eed565b15611569576040517f08c379a000000000000000000000000000000000000000000000000000000000815260040161156090613123565b60405180910390fd5b61157560008383611982565b6001600360008473ffffffffffffffffffffffffffffffffffffffff1673ffffffffffffffffffffffffffffffffffffffff16815260200190815260200160002060008282546115c5919061345c565b92505081905550816002600083815260200190815260200160002060006101000a81548173ffffffffffffffffffffffffffffffffffffffff021916908373ffffffffffffffffffffffffffffffffffffffff160217905550808273ffffffffffffffffffffffffffffffffffffffff16600073ffffffffffffffffffffffffffffffffffffffff167fddf252ad1be2c89b69c2b068fc378daa952ba7f163c4a11628f55a4df523b3ef60405160405180910390a45050565b61168782610eed565b6116c6576040517f08c379a00000000000000000000000000000000000000000000000000000000081526004016116bd90613203565b60405180910390fd5b80600a600084815260200190815260200160002090805190602001906116ed9291906122cb565b505050565b6116fd8484846110f8565b611709848484846119bb565b611748576040517f08c379a000000000000000000000000000000000000000000000000000000000815260040161173f90613103565b60405180910390fd5b50505050565b606061175982610eed565b611798576040517f08c379a000000000000000000000000000000000000000000000000000000000815260040161178f90613243565b60405180910390fd5b6000600a600084815260200190815260200160002080546117b8906135cd565b80601f01602080910402602001604051908101604052809291908181526020018280546117e4906135cd565b80156118315780601f1061180657610100808354040283529160200191611831565b820191906000526020600020905b81548152906001019060200180831161181457829003601f168201915b505050505090506000611842611b52565b905060008151141561185857819250505061189b565b60008251111561188d578082604051602001611875929190612f92565b6040516020818303038152906040529250505061189b565b61189684611b69565b925050505b919050565b60007f80ac58cd000000000000000000000000000000000000000000000000000000007bffffffffffffffffffffffffffffffffffffffffffffffffffffffff1916827bffffffffffffffffffffffffffffffffffffffffffffffffffffffff1916148061196b57507f5b5e139f000000000000000000000000000000000000000000000000000000007bffffffffffffffffffffffffffffffffffffffffffffffffffffffff1916827bffffffffffffffffffffffffffffffffffffffffffffffffffffffff1916145b8061197b575061197a82611c10565b5b9050919050565b61198d838383611c7a565b505050565b60008151905060006a636f6e736f6c652e6c6f679050602083016000808483855afa5050505050565b60006119dc8473ffffffffffffffffffffffffffffffffffffffff16611d8e565b15611b45578373ffffffffffffffffffffffffffffffffffffffff1663150b7a02611a05610f59565b8786866040518563ffffffff1660e01b8152600401611a279493929190612fd1565b602060405180830381600087803b158015611a4157600080fd5b505af1925050508015611a7257506040513d601f19601f82011682018060405250810190611a6f9190612677565b60015b611af5573d8060008114611aa2576040519150601f19603f3d011682016040523d82523d6000602084013e611aa7565b606091505b50600081511415611aed576040517f08c379a0000000000000000000000000000000000000000000000000000000008152600401611ae490613103565b60405180910390fd5b805181602001fd5b63150b7a0260e01b7bffffffffffffffffffffffffffffffffffffffffffffffffffffffff1916817bffffffffffffffffffffffffffffffffffffffffffffffffffffffff191614915050611b4a565b600190505b949350505050565b606060405180602001604052806000815250905090565b6060611b7482610eed565b611bb3576040517f08c379a0000000000000000000000000000000000000000000000000000000008152600401611baa906132a3565b60405180910390fd5b6000611bbd611b52565b90506000815111611bdd5760405180602001604052806000815250611c08565b80611be784611da1565b604051602001611bf8929190612f92565b6040516020818303038152906040525b915050919050565b60007f01ffc9a7000000000000000000000000000000000000000000000000000000007bffffffffffffffffffffffffffffffffffffffffffffffffffffffff1916827bffffffffffffffffffffffffffffffffffffffffffffffffffffffff1916149050919050565b611c85838383611f4e565b600073ffffffffffffffffffffffffffffffffffffffff168373ffffffffffffffffffffffffffffffffffffffff161415611cc857611cc381611f53565b611d07565b8173ffffffffffffffffffffffffffffffffffffffff168373ffffffffffffffffffffffffffffffffffffffff1614611d0657611d058382611f9c565b5b5b600073ffffffffffffffffffffffffffffffffffffffff168273ffffffffffffffffffffffffffffffffffffffff161415611d4a57611d4581612109565b611d89565b8273ffffffffffffffffffffffffffffffffffffffff168273ffffffffffffffffffffffffffffffffffffffff1614611d8857611d87828261224c565b5b5b505050565b600080823b905060008111915050919050565b60606000821415611de9576040518060400160405280600181526020017f30000000000000000000000000000000000000000000000000000000000000008152509050611f49565b600082905060005b60008214611e1b578080611e04906135ff565b915050600a82611e1491906134b2565b9150611df1565b60008167ffffffffffffffff811115611e5d577f4e487b7100000000000000000000000000000000000000000000000000000000600052604160045260246000fd5b6040519080825280601f01601f191660200182016040528015611e8f5781602001600182028036833780820191505090505b5090505b60008514611f4257600182611ea891906134e3565b9150600a85611eb79190613648565b6030611ec3919061345c565b60f81b818381518110611eff577f4e487b7100000000000000000000000000000000000000000000000000000000600052603260045260246000fd5b60200101907effffffffffffffffffffffffffffffffffffffffffffffffffffffffffffff1916908160001a905350600a85611f3b91906134b2565b9450611e93565b8093505050505b919050565b505050565b6008805490506009600083815260200190815260200160002081905550600881908060018154018082558091505060019003906000526020600020016000909190919091505550565b60006001611fa984610a69565b611fb391906134e3565b9050600060076000848152602001908152602001600020549050818114612098576000600660008673ffffffffffffffffffffffffffffffffffffffff1673ffffffffffffffffffffffffffffffffffffffff168152602001908152602001600020600084815260200190815260200160002054905080600660008773ffffffffffffffffffffffffffffffffffffffff1673ffffffffffffffffffffffffffffffffffffffff168152602001908152602001600020600084815260200190815260200160002081905550816007600083815260200190815260200160002081905550505b6007600084815260200190815260200160002060009055600660008573ffffffffffffffffffffffffffffffffffffffff1673ffffffffffffffffffffffffffffffffffffffff16815260200190815260200160002060008381526020019081526020016000206000905550505050565b6000600160088054905061211d91906134e3565b9050600060096000848152602001908152602001600020549050600060088381548110612173577f4e487b7100000000000000000000000000000000000000000000000000000000600052603260045260246000fd5b9060005260206000200154905080600883815481106121bb577f4e487b7100000000000000000000000000000000000000000000000000000000600052603260045260246000fd5b906000526020600020018190555081600960008381526020019081526020016000208190555060096000858152602001908152602001600020600090556008805480612230577f4e487b7100000000000000000000000000000000000000000000000000000000600052603160045260246000fd5b6001900381819060005260206000200160009055905550505050565b600061225783610a69565b905081600660008573ffffffffffffffffffffffffffffffffffffffff1673ffffffffffffffffffffffffffffffffffffffff168152602001908152602001600020600083815260200190815260200160002081905550806007600084815260200190815260200160002081905550505050565b8280546122d7906135cd565b90600052602060002090601f0160209004810192826122f95760008555612340565b82601f1061231257805160ff1916838001178555612340565b82800160010185558215612340579182015b8281111561233f578251825591602001919060010190612324565b5b50905061234d9190612351565b5090565b5b8082111561236a576000816000905550600101612352565b5090565b600061238161237c8461336f565b61333e565b90508281526020810184848401111561239957600080fd5b6123a484828561358b565b509392505050565b60006123bf6123ba8461339f565b61333e565b9050828152602081018484840111156123d757600080fd5b6123e284828561358b565b509392505050565b6000813590506123f981613746565b92915050565b60008135905061240e8161375d565b92915050565b60008135905061242381613774565b92915050565b60008151905061243881613774565b92915050565b600082601f83011261244f57600080fd5b813561245f84826020860161236e565b91505092915050565b600082601f83011261247957600080fd5b81356124898482602086016123ac565b91505092915050565b6000813590506124a18161378b565b92915050565b6000602082840312156124b957600080fd5b60006124c7848285016123ea565b91505092915050565b600080604083850312156124e357600080fd5b60006124f1858286016123ea565b9250506020612502858286016123ea565b9150509250929050565b60008060006060848603121561252157600080fd5b600061252f868287016123ea565b9350506020612540868287016123ea565b925050604061255186828701612492565b9150509250925092565b6000806000806080858703121561257157600080fd5b600061257f878288016123ea565b9450506020612590878288016123ea565b93505060406125a187828801612492565b925050606085013567ffffffffffffffff8111156125be57600080fd5b6125ca8782880161243e565b91505092959194509250565b600080604083850312156125e957600080fd5b60006125f7858286016123ea565b9250506020612608858286016123ff565b9150509250929050565b6000806040838503121561262557600080fd5b6000612633858286016123ea565b925050602061264485828601612492565b9150509250929050565b60006020828403121561266057600080fd5b600061266e84828501612414565b91505092915050565b60006020828403121561268957600080fd5b600061269784828501612429565b91505092915050565b6000602082840312156126b257600080fd5b600082013567ffffffffffffffff8111156126cc57600080fd5b6126d884828501612468565b91505092915050565b6000602082840312156126f357600080fd5b600061270184828501612492565b91505092915050565b6000806040838503121561271d57600080fd5b600061272b85828601612492565b925050602061273c85828601612492565b9150509250929050565b60006127528383612826565b905092915050565b61276381613517565b82525050565b6000612774826133df565b61277e818561340d565b935083602082028501612790856133cf565b8060005b858110156127cc57848403895281516127ad8582612746565b94506127b883613400565b925060208a01995050600181019050612794565b50829750879550505050505092915050565b6127e781613529565b82525050565b60006127f8826133ea565b612802818561341e565b935061281281856020860161359a565b61281b81613735565b840191505092915050565b6000612831826133f5565b61283b818561342f565b935061284b81856020860161359a565b61285481613735565b840191505092915050565b600061286a826133f5565b6128748185613440565b935061288481856020860161359a565b61288d81613735565b840191505092915050565b60006128a3826133f5565b6128ad8185613451565b93506128bd81856020860161359a565b80840191505092915050565b60006128d6602b83613440565b91507f455243373231456e756d657261626c653a206f776e657220696e646578206f7560008301527f74206f6620626f756e64730000000000000000000000000000000000000000006020830152604082019050919050565b600061293c603283613440565b91507f4552433732313a207472616e7366657220746f206e6f6e20455243373231526560008301527f63656976657220696d706c656d656e74657200000000000000000000000000006020830152604082019050919050565b60006129a2601c83613440565b91507f4552433732313a20746f6b656e20616c7265616479206d696e746564000000006000830152602082019050919050565b60006129e2602483613440565b91507f4552433732313a207472616e7366657220746f20746865207a65726f2061646460008301527f72657373000000000000000000000000000000000000000000000000000000006020830152604082019050919050565b6000612a48601983613440565b91507f4552433732313a20617070726f766520746f2063616c6c6572000000000000006000830152602082019050919050565b6000612a88602c83613440565b91507f4552433732313a206f70657261746f7220717565727920666f72206e6f6e657860008301527f697374656e7420746f6b656e00000000000000000000000000000000000000006020830152604082019050919050565b6000612aee603883613440565b91507f4552433732313a20617070726f76652063616c6c6572206973206e6f74206f7760008301527f6e6572206e6f7220617070726f76656420666f7220616c6c00000000000000006020830152604082019050919050565b6000612b54602a83613440565b91507f4552433732313a2062616c616e636520717565727920666f7220746865207a6560008301527f726f2061646472657373000000000000000000000000000000000000000000006020830152604082019050919050565b6000612bba602983613440565b91507f4552433732313a206f776e657220717565727920666f72206e6f6e657869737460008301527f656e7420746f6b656e00000000000000000000000000000000000000000000006020830152604082019050919050565b6000612c20602e83613440565b91507f45524337323155524953746f726167653a2055524920736574206f66206e6f6e60008301527f6578697374656e7420746f6b656e0000000000000000000000000000000000006020830152604082019050919050565b6000612c86602083613440565b91507f4552433732313a206d696e7420746f20746865207a65726f20616464726573736000830152602082019050919050565b6000612cc6603183613440565b91507f45524337323155524953746f726167653a2055524920717565727920666f722060008301527f6e6f6e6578697374656e7420746f6b656e0000000000000000000000000000006020830152604082019050919050565b6000612d2c602c83613440565b91507f4552433732313a20617070726f76656420717565727920666f72206e6f6e657860008301527f697374656e7420746f6b656e00000000000000000000000000000000000000006020830152604082019050919050565b6000612d92602983613440565b91507f4552433732313a207472616e73666572206f6620746f6b656e2074686174206960008301527f73206e6f74206f776e00000000000000000000000000000000000000000000006020830152604082019050919050565b6000612df8602f83613440565b91507f4552433732314d657461646174613a2055524920717565727920666f72206e6f60008301527f6e6578697374656e7420746f6b656e00000000000000000000000000000000006020830152604082019050919050565b6000612e5e602183613440565b91507f4552433732313a20617070726f76616c20746f2063757272656e74206f776e6560008301527f72000000000000000000000000000000000000000000000000000000000000006020830152604082019050919050565b6000612ec4603183613440565b91507f4552433732313a207472616e736665722063616c6c6572206973206e6f74206f60008301527f776e6572206e6f7220617070726f7665640000000000000000000000000000006020830152604082019050919050565b6000612f2a602c83613440565b91507f455243373231456e756d657261626c653a20676c6f62616c20696e646578206f60008301527f7574206f6620626f756e647300000000000000000000000000000000000000006020830152604082019050919050565b612f8c81613581565b82525050565b6000612f9e8285612898565b9150612faa8284612898565b91508190509392505050565b6000602082019050612fcb600083018461275a565b92915050565b6000608082019050612fe6600083018761275a565b612ff3602083018661275a565b6130006040830185612f83565b818103606083015261301281846127ed565b905095945050505050565b600060208201905081810360008301526130378184612769565b905092915050565b600060208201905061305460008301846127de565b92915050565b60006020820190508181036000830152613074818461285f565b905092915050565b60006040820190508181036000830152613096818561285f565b905081810360208301526130aa818461285f565b90509392505050565b600060408201905081810360008301526130cd818561285f565b90506130dc6020830184612f83565b9392505050565b600060208201905081810360008301526130fc816128c9565b9050919050565b6000602082019050818103600083015261311c8161292f565b9050919050565b6000602082019050818103600083015261313c81612995565b9050919050565b6000602082019050818103600083015261315c816129d5565b9050919050565b6000602082019050818103600083015261317c81612a3b565b9050919050565b6000602082019050818103600083015261319c81612a7b565b9050919050565b600060208201905081810360008301526131bc81612ae1565b9050919050565b600060208201905081810360008301526131dc81612b47565b9050919050565b600060208201905081810360008301526131fc81612bad565b9050919050565b6000602082019050818103600083015261321c81612c13565b9050919050565b6000602082019050818103600083015261323c81612c79565b9050919050565b6000602082019050818103600083015261325c81612cb9565b9050919050565b6000602082019050818103600083015261327c81612d1f565b9050919050565b6000602082019050818103600083015261329c81612d85565b9050919050565b600060208201905081810360008301526132bc81612deb565b9050919050565b600060208201905081810360008301526132dc81612e51565b9050919050565b600060208201905081810360008301526132fc81612eb7565b9050919050565b6000602082019050818103600083015261331c81612f1d565b9050919050565b60006020820190506133386000830184612f83565b92915050565b6000604051905081810181811067ffffffffffffffff8211171561336557613364613706565b5b8060405250919050565b600067ffffffffffffffff82111561338a57613389613706565b5b601f19601f8301169050602081019050919050565b600067ffffffffffffffff8211156133ba576133b9613706565b5b601f19601f8301169050602081019050919050565b6000819050602082019050919050565b600081519050919050565b600081519050919050565b600081519050919050565b6000602082019050919050565b600082825260208201905092915050565b600082825260208201905092915050565b600082825260208201905092915050565b600082825260208201905092915050565b600081905092915050565b600061346782613581565b915061347283613581565b9250827fffffffffffffffffffffffffffffffffffffffffffffffffffffffffffffffff038211156134a7576134a6613679565b5b828201905092915050565b60006134bd82613581565b91506134c883613581565b9250826134d8576134d76136a8565b5b828204905092915050565b60006134ee82613581565b91506134f983613581565b92508282101561350c5761350b613679565b5b828203905092915050565b600061352282613561565b9050919050565b60008115159050919050565b60007fffffffff0000000000000000000000000000000000000000000000000000000082169050919050565b600073ffffffffffffffffffffffffffffffffffffffff82169050919050565b6000819050919050565b82818337600083830152505050565b60005b838110156135b857808201518184015260208101905061359d565b838111156135c7576000848401525b50505050565b600060028204905060018216806135e557607f821691505b602082108114156135f9576135f86136d7565b5b50919050565b600061360a82613581565b91507fffffffffffffffffffffffffffffffffffffffffffffffffffffffffffffffff82141561363d5761363c613679565b5b600182019050919050565b600061365382613581565b915061365e83613581565b92508261366e5761366d6136a8565b5b828206905092915050565b7f4e487b7100000000000000000000000000000000000000000000000000000000600052601160045260246000fd5b7f4e487b7100000000000000000000000000000000000000000000000000000000600052601260045260246000fd5b7f4e487b7100000000000000000000000000000000000000000000000000000000600052602260045260246000fd5b7f4e487b7100000000000000000000000000000000000000000000000000000000600052604160045260246000fd5b6000601f19601f8301169050919050565b61374f81613517565b811461375a57600080fd5b50565b61376681613529565b811461377157600080fd5b50565b61377d81613535565b811461378857600080fd5b50565b61379481613581565b811461379f57600080fd5b5056fea2646970667358221220f1afda9006ebe23347062d5ca5a347fa40c56e5182b0113e721b2025e929ae0164736f6c63430008000033",
  "linkReferences": {},
  "deployedLinkReferences": {}
}